:020000040000FA
:1000000030070010E1000000E9000000EB000000F4
:1000100000000000000000000000000000000000E0
:10002000000000000000000000000000ED000000E3
:100030000000000000000000EF000000390F000089
:100040006D0F0000C910000099040000790800003D
:10005000F30000005D100000F3000000F30000005A
:10006000F3000000F3000000F3000000F3000000C4
:10007000F3000000F3000000F3000000850D000015
:10008000A1020000E1020000F3000000F300000004
:10009000F3000000F3000000F3000000F300000094
:1000A000F3000000F3000000F3000000F300000084
:1000B000F3000000F3000000F3000000F300000074
:1000C000F3000000F3000000DFF810D000F048F863
:1000D0000048004775140000AFF30080300700109F
:1000E0000448804704480047FEE7FEE7FEE7FEE7D6
:1000F000FEE7FEE7650F0000C90000002DE9F05F94
:100100000546002092469B46884606468146402486
:100110001BE0284641464746224600F042F8534637
:100120005A46C01A914110D311461846224600F093
:1001300029F82D1A67EB01084F46224601200021BD
:1001400000F020F817EB00094E41201EA4F1010435
:10015000DFDC484631462A464346BDE8F09F0000B2
:10016000064C074D06E0E06840F0010394E8070004
:1001700098471034AC42F6D3FFF7AAFF38150000B9
:1001800058150000202A04DB203A00FA02F1002072
:1001900070479140C2F1200320FA03F319439040C5
:1001A0007047202A04DB203A21FA02F00021704730
:1001B00021FA02F3D040C2F12002914008431946CF
:1001C000704700002DE9F04F87B004460E461746F1
:1001D0009846DDF840A06068000C069020891FFA60
:1001E00080FBA068000C04904FF4ED700590584619
:1001F000069900F081FE0190DDE9041000F07CFE1C
:100200000090DFF864904FF4ED7003904FF40070AD
:1002100002900198206000986060C4F80890DDE9C1
:10022000021000F069FE6061C4F818900F48E061A8
:100230000F49D8F8000048644FF020413868086042
:10024000002507E054F82510681C8000A0F1C0408C
:1002500001606D1C3068A842F4D80549DAF8000046
:10026000086407B0BDE8F08F02030405C0A8010BC5
:10027000001000A010B503460C460021002203E048
:1002800033F812000144521CA242F9D302E088B2B2
:1002900000EB1141080C0028F9D1C84380B210BD11
:1002A00010B54FF0C04000F01CF9044604F0010006
:1002B00038B101214FF0C04000F010F90120014990
:1002C000087010BD00000010002105E0002200E0D1
:1002D000521C642AFCDD491C8142F7DD7047000096
:1002E000F0B500204FF0204505EBC01505F11001D9
:1002F0000B6803F00402042A3AD1002436E04FF0E0
:10030000204505EBC01505F10C010E68414D55F86F
:10031000207055F820506D1CDFF8F8C04CF82050C4
:1003200000EBC00505EB0015DFF8ECC00CEBC505D4
:1003300045F82760374D55F82050322D03D300255E
:10034000344E46F82050334D55F82050334E56F871
:100350002060B54209D10025304E46F820502D4E80
:1003600046F8205001252E4E3554641C042CC6D36B
:1003700003F00802082A4BD103F001023EE04FF0DF
:10038000204505EBC01505F10C010E68214D55F80F
:10039000207055F820506D1CDFF878C04CF82050C4
:1003A00000EBC00505EB0015DFF86CC00CEBC505D4
:1003B00045F82760174D55F82050322D03D30025FE
:1003C000144E46F82050134D55F82050134E56F851
:1003D0002060B54209D10025104E46F820500D4E40
:1003E00046F8205001250E4E35544FF0204505EBC0
:1003F000C01505F110010D6805F00102012ABED1FA
:100400004FF0204505EBC01505F1140161250D6085
:10041000F0BD00001800001064020010140000106D
:100420001000001070B50146174B184D184C194AB2
:100430000E68761C3EB94E68AE4204D18E68964274
:1004400001D101201EE00E689E420BD14E68A642EB
:1004500008D18E68964205D14E69B6F1C07F01D0B1
:1004600001200FE00E689E420BD14E68A64208D1D3
:100470008E68964205D14E69B6F1C07F01D1022047
:1004800000E0002070BD0000DA010203FFFF00E081
:10049000040500E04CA8035210B54FF0804000F076
:1004A00026F8044621464FF0804000F01EF804F084
:1004B000010018B10221480700F01CF810BD00002F
:1004C000002104488068C0F3C201481C024A92FB24
:1004D000F0F070470060005100E1F505C0F83813F6
:1004E00070470146D1F860037047C1647047014608
:1004F000086C704702684A40026070470146086C09
:10050000C0B270470246106F084008B10120704722
:100510000020FCE70146C86A80B270471AB1036B3D
:100520000B43036302E0036B8B43036370470000DC
:100530002DE9F04104460F461546002600BF0F483E
:10054000844204D00E48844201D000BFFEE700BFC1
:1005500000BF0DB900BFFEE700BF00BF204600F09E
:10056000D3FD08B900BFFEE700BF2069C2B2304624
:10057000711CCEB22A543046BDE8F08100300051E3
:1005800000900051C26B0A43C2637047024600BF2D
:100590000B4882420AD00B48824207D00A48824266
:1005A00004D00A48824201D000BFFEE700BFD06BF2
:1005B0000840884201D1012070470020FCE700007C
:1005C0000040005100A0005100E0005100F0005137
:1005D00000BF79B101290DD002290BD0032909D020
:1005E000042907D0052905D0062903D0072901D001
:1005F00000BFFEE700BF01EB810300EB8303DA6875
:1006000070470146D1F8A0007047000000BF0649BE
:10061000884207D00549884204D00549884201D064
:1006200000BFFEE700BF70470050005100B000510E
:1006300000D00051014600BF0748814207D007485B
:10064000814204D00648814201D000BFFEE700BFCE
:10065000886800F00F0070470050005100B0005152
:1006600000D000512DE9F84F05460C46FFF728FF52
:10067000834600BF4448854207D04448854204D0A1
:100680004348854201D000BFFEE700BF00BF0CB960
:1006900000BFFEE700BF00BF607920B16079042889
:1006A00001D000BFFEE700BF00BFA07968B1A0790C
:1006B00018280AD0A079082807D0A079382804D0B3
:1006C000A079282801D000BFFEE700BF00BFE07975
:1006D00050B1E079402807D0E079802804D0E07953
:1006E000C02801D000BFFEE700BF00BF207A50B194
:1006F000207A102807D0207A202804D0207A3028A9
:1007000001D000BFFEE700BF00BF607A20B1607A71
:10071000082801D000BFFEE700BF00BF2068002806
:1007200003D92068B0EB1B1F01D900BFFEE700BF53
:100730002068BBFBF0F6370906F00F0000904FF081
:100740000008207961790843A17940EA0109E0793C
:10075000217A0843617A084340F0070A0020686064
:10076000C5F8108049F08000E860F8B22860380AC7
:1007700068600098C5F8C000E86820F08000E86074
:10078000C5F808A0BDE8F88F0050005100B0005136
:1007900000D0005170B50346002000BF114CA342A9
:1007A00007D0114CA34204D0104CA34201D000BF8B
:1007B000FEE700BF00BF0AB900BFFEE700BF00BFF1
:1007C00009B900BFFEE700BF08E05C6904F001045E
:1007D00024B11C68E6B20446401C16558842F4D386
:1007E00070BD00000050005100B0005100D0005119
:1007F00030B50346002000BF104CA34207D0104C78
:10080000A34204D00F4CA34201D000BFFEE700BFBB
:1008100000BF0AB900BFFEE700BF00BF09B900BFB3
:10082000FEE700BF07E05C69C4F380141CB1044616
:10083000401C145D1C608842F5D330BD005000514F
:1008400000B0005100D0005100BF08B900BFFEE762
:1008500000BF4FF4E13101600321017100214171BA
:100860008171C17101724172C17270470149486959
:10087000704700000010005110B51B48FFF74AFEFA
:100880001A4908800846007800F01000102807D1A7
:10089000002210211448FFF741FE0120144908707E
:1008A0001248007800F0040004281BD10E48FFF71E
:1008B00025FE0E4908800CE00E480F4909784218C1
:1008C00001210948FFF734FE0B480078401C0A4913
:1008D000087008210448FFF715FE0028ECD101201C
:1008E0000649087010BD0000003000510C000010D7
:1008F00008000010440200100A0000100900001057
:100900002DE9F04FA0B00446884691469A466068AB
:10091000000C1E90208980B21F90A068000C1C90D3
:10092000208880B21D9020684FEA104B60681B90B1
:10093000DDE91E1000F0E0FA0290DDE91C1000F085
:10094000DBFA019059461B9A90B200F0D5FA00905C
:10095000208B80B20390A08B0004A16940EA114073
:100960000490208C0004E16940EA1146029820605E
:10097000019860600098A060092509E054F82500FE
:1009800000F0CBFAA5F109010FAA42F821006D1C75
:10099000152DF3DB002512E02F4605EBD7735B1016
:1009A0000DF13C0C5CF823000DF1140C6B1C0CEBEE
:1009B000430205AB03EB450100F0A2FAAD1C142D78
:1009C000EADB0020ADF81400ADF83A00002505E0A0
:1009D000142105A8FFF74EFC1A906D1C142DF7DBAF
:1009E0001A9800F094FA1A90B0B2039900F084FAC1
:1009F000A061310CB0B200F07FFAE0610498010C04
:100A0000002000F079FA2062616A080C1A9900F05F
:100A100073FA60620E49DAF8000048644FF0204132
:100A2000D9F800000860002507E054F82510681C7C
:100A30008000A0F1C04001606D1CD8F80000A84201
:100A4000F3D8299800680249086420B0BDE8F08F07
:100A5000001000A00B4A11130A50CA04091D0A50C5
:100A6000002241F210010A50091D0A50064A41F2C3
:100A70001C010A50054A091D0A50802241F2440116
:100A80000A5070470C08000101DA008005040302D7
:100A90004AF2010241F20C010A5041F68762091F35
:100AA0000A500A11091D0A5041F68772091F0A509F
:100AB0004AF20302091D0A5041F68762091F0A50D3
:100AC000F122091D0A5041F68772091F0A5054226B
:100AD000091D0A5041F68762091F0A504FF440422F
:100AE000091D0A5041F68772091F0A504AF2120284
:100AF000091D0A5041F68762091F0A50C822091DC4
:100B00000A5041F68772091F0A502722091D0A5010
:100B100041F68762091F0A5046F61202091D0A5063
:100B200041F68772091F0A504AF20602091D0A504F
:100B300041F68762091F0A508D22091D0A5041F6AD
:100B40008772091F0A505222091D0A5041F6876216
:100B5000091F0A504AF27D32091D0A5041F6877278
:100B6000091F0A50DD22091D0A5041F68762091F3C
:100B70000A5048F26E52091D0A5041F68772091F49
:100B80000A505122091D0A5041F68762091F0A5076
:100B900041F2F642091D0A5041F68772091F0A50B8
:100BA0002922091D0A5041F68762091F0A500D22A9
:100BB000091D0A5041F68772091F0A50A022091D1B
:100BC0000A5041F68762091F0A504AF6D002091DF1
:100BD0000A5041F68772091F0A5040F60C02091D9F
:100BE0000A5041F28742091F0A5041F60142091D8D
:100BF0000A5040F28742091F0A5044F24012091D70
:100C00000A508722091F0A504AF20102091D0A50A0
:100C100040F68762091F0A500A11091D0A5040F662
:100C20008772091F0A504AF20302091D0A5040F652
:100C30008762091F0A50F122091D0A5040F6877287
:100C4000091F0A505422091D0A5040F68762091FE5
:100C50000A504FF44042091D0A5040F68772091F9E
:100C60000A504AF21202091D0A5040F68762091F13
:100C70000A50C822091D0A5040F68772091F0A50FF
:100C80002722091D0A5040F68762091F0A5046F6BE
:100C90001202091D0A5040F68772091F0A504AF2D3
:100CA0000602091D0A5040F68762091F0A508D226C
:100CB000091D0A5040F68772091F0A505222091D69
:100CC0000A5040F68762091F0A504AF27D32091D18
:100CD0000A5040F68772091F0A50DD22091D0A508A
:100CE00040F68762091F0A5048F26E52091D0A50E9
:100CF00040F68772091F0A505122091D0A5040F61A
:100D00008762091F0A5041F2F642091D0A5040F657
:100D10008772091F0A502922091D0A5040F687626E
:100D2000091F0A500D22091D0A5040F68772091F3B
:100D30000A50A022091D0A5040F68762091F0A5076
:100D40004AF6D002091D0A5040F68772091F0A5060
:100D500040F60C02091D0A5040F28742091F0A5052
:100D600041F60142091D0A5041F60762091F0A5067
:100D700044F24012091D0A5041F60722091F0A5089
:100D80007047000070B500240025002604210F489C
:100D9000FFF7FCFB20B104210C48FFF7F3FB012413
:100DA00008210A48FFF7F2FB20B108210748FFF7A6
:100DB000E9FB012510210548FFF7E8FB20B11021D0
:100DC0000248FFF7DFFB012670BD000000F0005174
:100DD00030B503460E4CE46C0C600C7804F0030450
:100DE0001CB90C68A408146004E001250C6805EB2C
:100DF00094041460002004E0064C246843F820406A
:100E0000401C14688442F7D85124014D2C6430BD35
:100E1000001000A0000800A02DE9F04100240027E8
:100E2000202604E0641C0648456C05EA0607202FCE
:100E3000F8D1214603A000F057F9BDE8F081000089
:100E4000001000A054696D65206973203A20257850
:100E5000202020200000000000BF012802D008B19F
:100E600000BFFEE700BF0449096860F30001024AC1
:100E70008C3AC2F88C1070478C6000514FF0FF30F4
:100E80000149086070470000846000511348806881
:100E900020F00100114988600846806820F00200B7
:100EA000801C88600846806820F00400001D88606F
:100EB0000846806820F0380088600846806820F482
:100EC000E07088600846806820F4007088600846FA
:100ED000806820F4806088607047000000600051E6
:100EE000026822B91022026041220A6003E0002257
:100EF000026031220A607047024641EA02407047B0
:100F00004FF6FF7303EA10430B80108070470146D1
:100F1000081240EA012080B2704701464FF47F4238
:100F200002EA112242EA11604FF47F0202EA012232
:100F3000104340EA0160704710B500204FF0E021F7
:100F4000086102A000F0D0F810BD00006469736170
:100F5000626C65207379737469636B206972710DBB
:100F60000A00000010B500F0DDFA10BD10B54FF01A
:100F7000A240FFF746FB044600BFE0B208B900BF3D
:100F8000FEE700BF04F0010048B100214FF0A2408D
:100F9000FFF71EFB30480068401C2F49086004F032
:100FA000020048B101214FF0A240FFF711FB2A488F
:100FB0004068401C2849486004F0040048B1022100
:100FC0004FF0A240FFF704FB23488068401C2249F1
:100FD000886004F0080048B103214FF0A240FFF7F9
:100FE000F7FA1D48C068401C1B49C86004F0100097
:100FF00048B104214FF0A240FFF7EAFA1648006911
:10100000401C1549086104F0200048B105214FF04B
:10101000A240FFF7DDFA10484069401C0E494861C4
:1010200004F0400048B106214FF0A240FFF7D0FA8B
:1010300009488069401C0849886104F0800048B173
:1010400007214FF0A240FFF7C3FA0348C069401CD4
:101050000149C86110BD00002402001038B51848CD
:10106000FFF7E8FA0446062C22D005DC4CB1022C2E
:1010700008D0042C1FD109E0072C1AD00C2C1AD14F
:1010800018E01BE001200F49087017E000200090D5
:101090006A4601210A48FFF77DFB012807D100BFFE
:1010A0006A4601210648FFF7A3FB0128F8D105E0B5
:1010B00004E003E002E000BF00BFFEE700BF38BD70
:1010C000005000510E00001010B5FFF7CFFB0120BB
:1010D0000349087003480068401C0249086010BDBD
:1010E00001000010040000100FB4054B10B503A957
:1010F000044A029800F02CF810BC5DF814FB0000C4
:10110000111400001C000010014600BF0648814277
:1011100004D00648814201D000BFFEE700BFC86E80
:1011200000F00100704700000030005100900051B5
:1011300002E008C8121F08C1002AFAD170477047A0
:10114000002001E001C1121F002AFBD170470000FE
:101150002DE9FF4F8DB09B460F460446002606E062
:1011600025280BD05A460F999047641C761C20788E
:101170000028F5D111B03046BDE8F08F0025A84613
:101180000122984900E0054314F8013F203B02FA90
:1011900003F00842F7D120782E2817D114F8010F58
:1011A00045F004052A280ED06FF02F022078A0F118
:1011B000300109290AD808EB880102EB410100EB54
:1011C0000108641CF2E757F8048B641C20786C2833
:1011D0000DD004DC4C2812D06A2811D104E0742808
:1011E0000DD07A280CD10AE045F4001507E06178AB
:1011F00045F48015814202D1641C05F58015641CFC
:101200002078692844D008DC0028B3D0582867D05B
:1012100063280FD0642808D13AE0702865D073287D
:1012200012D075285AD078285AD05A460F9990472C
:10123000761CD5E017F8040B8DF8000000208DF81F
:101240000100E946012003E057F8049B4FF0FF300E
:1012500069074FF0000501D40AE06D1C45450DDA21
:101260008542FADB19F805100029F6D106E06D1C5D
:101270008542FCDB19F805100029F8D12E4404E062
:1012800019F8010B5A460F9990476D1EF8D2A7E046
:101290000A200021CDE90801C5F3025002280CD034
:1012A00001CFC117021E71F100020CDA0023D0EB4E
:1012B000030063EB01012D2208E0FF1D27F0070763
:1012C000F7E80201EEE72A0504D52B228DF8282045
:1012D00001223CE0EA073AD02022F7E70A2000E0AA
:1012E00010200021CDE9080107E01020002145F081
:1012F0000405CDE908014FF00808C5F302500228A3
:1013000010D001CF00214FF0000A2A0720D5227803
:10131000702A0DD0DDE908C38CF0100C5CEA030CD8
:101320000CD015E0FF1D27F00707F7E80201EAE7F8
:1013300040228DF828204FF0010A0CE050EA01030A
:1013400006D030238DF828308DF8292002229246CD
:101350002278582A04D024A20DF120090B9209E02A
:1013600026A2F9E7DDE90823FEF7C8FE0B9B9B5C8C
:1013700009F8013D50EA0102F4D1ADEB090020303B
:101380000890680701D44FF001080899884503DDEB
:101390000898A8EB000000E000208046002506E049
:1013A0000AA85A46405D0F9990476D1C761C55451A
:1013B000F6DB04E030205A460F999047761CB8F1CE
:1013C0000001A8F10108F5DC05E019F8010B5A4607
:1013D0000F999047761C0899481E08900029F4DC64
:1013E000641CC4E609280100303132333435363705
:1013F0003839616263646566000000003031323361
:101400003435363738394142434445460000000000
:1014100070B504460D46E6B20B48854209D10A2C48
:1014200003D10D26304600F019F8E0B200F016F8AE
:1014300070BD0648854203D1E0B200F009F8F7E735
:101440004FF0FF30F4E700001C00001020000010F7
:1014500010B50446204600F001F810BD01B500BFEC
:101460006A4601210248FFF7C3F90128F8D108BDF7
:1014700000500051ADF5087D00200590312004900A
:101480000024012502262248FFF7C0F801A8FFF733
:10149000DBF901A91E48FFF7E5F81EA0FFF724FEBF
:1014A0004FF02040FFF7F4FA4FF02040FFF7D2FA58
:1014B0006420FEF709FF29E0FFF7AEFC06AA07A9A2
:1014C00008A8FFF785FC1648006D08A8FEF7AAFFDC
:1014D0000446AC420CD104A805AB07AA06A90090AB
:1014E00008A8FEF76FFE04A905A8FFF7F9FC0DE0B8
:1014F000B4420BD104A805AB07AA06A9009008A81E
:10150000FFF7FEF904A905A8FFF7EAFCD4E70000FD
:1015100000500051737973207374617274200A0053
:10152000001000A000B50120FFF796FCFFF7AEFC0D
:10153000FFF7A4FC00BD00005815000000000010DB
:1015400024000000301100007C1500002400001071
:101550000C07000040110000000000000000000027
:10156000000000000000000000000000000000007B
:0C1570000000000000000000000000006F
:04000005000000C92E
:00000001FF
